{
  "contractName": "DeFiStaking",
  "abi": [
    {
      "inputs": [
        {
          "internalType": "address",
          "name": "_rewardToken",
          "type": "address"
        },
        {
          "internalType": "address",
          "name": "_rewardTokenFeed",
          "type": "address"
        },
        {
          "internalType": "uint256",
          "name": "_yield",
          "type": "uint256"
        }
      ],
      "stateMutability": "nonpayable",
      "type": "constructor"
    },
    {
      "anonymous": false,
      "inputs": [
        {
          "indexed": true,
          "internalType": "address",
          "name": "previousOwner",
          "type": "address"
        },
        {
          "indexed": true,
          "internalType": "address",
          "name": "newOwner",
          "type": "address"
        }
      ],
      "name": "OwnershipTransferred",
      "type": "event"
    },
    {
      "anonymous": false,
      "inputs": [
        {
          "indexed": false,
          "internalType": "address",
          "name": "tokenPoolAddress",
          "type": "address"
        },
        {
          "indexed": false,
          "internalType": "address",
          "name": "priceFeed",
          "type": "address"
        }
      ],
      "name": "PoolAdded",
      "type": "event"
    },
    {
      "anonymous": false,
      "inputs": [
        {
          "indexed": false,
          "internalType": "address",
          "name": "user",
          "type": "address"
        },
        {
          "indexed": false,
          "internalType": "address",
          "name": "tokenPoolAddress",
          "type": "address"
        },
        {
          "indexed": false,
          "internalType": "uint256",
          "name": "amount",
          "type": "uint256"
        }
      ],
      "name": "Staked",
      "type": "event"
    },
    {
      "anonymous": false,
      "inputs": [
        {
          "indexed": false,
          "internalType": "address",
          "name": "user",
          "type": "address"
        },
        {
          "indexed": false,
          "internalType": "address",
          "name": "tokenPoolAddress",
          "type": "address"
        },
        {
          "indexed": false,
          "internalType": "uint256",
          "name": "amount",
          "type": "uint256"
        }
      ],
      "name": "Unstaked",
      "type": "event"
    },
    {
      "inputs": [],
      "name": "owner",
      "outputs": [
        {
          "internalType": "address",
          "name": "",
          "type": "address"
        }
      ],
      "stateMutability": "view",
      "type": "function"
    },
    {
      "inputs": [
        {
          "internalType": "address",
          "name": "",
          "type": "address"
        }
      ],
      "name": "pools",
      "outputs": [
        {
          "components": [
            {
              "internalType": "contract ERC20",
              "name": "token",
              "type": "address"
            },
            {
              "internalType": "uint256",
              "name": "yield",
              "type": "uint256"
            },
            {
              "internalType": "contract AggregatorV3Interface",
              "name": "priceFeed",
              "type": "address"
            }
          ],
          "internalType": "struct DeFiStaking.PoolInfo",
          "name": "info",
          "type": "tuple"
        }
      ],
      "stateMutability": "view",
      "type": "function"
    },
    {
      "inputs": [],
      "name": "renounceOwnership",
      "outputs": [],
      "stateMutability": "nonpayable",
      "type": "function"
    },
    {
      "inputs": [],
      "name": "rewardToken",
      "outputs": [
        {
          "internalType": "contract IERC20",
          "name": "",
          "type": "address"
        }
      ],
      "stateMutability": "view",
      "type": "function"
    },
    {
      "inputs": [
        {
          "internalType": "address",
          "name": "newOwner",
          "type": "address"
        }
      ],
      "name": "transferOwnership",
      "outputs": [],
      "stateMutability": "nonpayable",
      "type": "function"
    },
    {
      "inputs": [],
      "name": "getPools",
      "outputs": [
        {
          "internalType": "address[]",
          "name": "",
          "type": "address[]"
        }
      ],
      "stateMutability": "view",
      "type": "function"
    },
    {
      "inputs": [
        {
          "internalType": "address",
          "name": "_token",
          "type": "address"
        },
        {
          "internalType": "address",
          "name": "_user",
          "type": "address"
        }
      ],
      "name": "getUserBalanceInPool",
      "outputs": [
        {
          "internalType": "uint256",
          "name": "",
          "type": "uint256"
        }
      ],
      "stateMutability": "view",
      "type": "function"
    },
    {
      "inputs": [
        {
          "internalType": "address",
          "name": "_token",
          "type": "address"
        }
      ],
      "name": "getPoolBalance",
      "outputs": [
        {
          "internalType": "uint256",
          "name": "",
          "type": "uint256"
        }
      ],
      "stateMutability": "view",
      "type": "function"
    },
    {
      "inputs": [
        {
          "internalType": "address",
          "name": "_token",
          "type": "address"
        },
        {
          "internalType": "address",
          "name": "_priceFeed",
          "type": "address"
        },
        {
          "internalType": "uint256",
          "name": "_yield",
          "type": "uint256"
        }
      ],
      "name": "addPool",
      "outputs": [],
      "stateMutability": "nonpayable",
      "type": "function"
    },
    {
      "inputs": [
        {
          "internalType": "address",
          "name": "_token",
          "type": "address"
        },
        {
          "internalType": "uint256",
          "name": "_amount",
          "type": "uint256"
        }
      ],
      "name": "stake",
      "outputs": [],
      "stateMutability": "nonpayable",
      "type": "function"
    },
    {
      "inputs": [
        {
          "internalType": "address",
          "name": "_token",
          "type": "address"
        }
      ],
      "name": "unstake",
      "outputs": [],
      "stateMutability": "nonpayable",
      "type": "function"
    },
    {
      "inputs": [
        {
          "internalType": "address",
          "name": "_token",
          "type": "address"
        }
      ],
      "name": "pendingReward",
      "outputs": [
        {
          "internalType": "uint256",
          "name": "",
          "type": "uint256"
        }
      ],
      "stateMutability": "view",
      "type": "function"
    },
    {
      "inputs": [
        {
          "internalType": "address",
          "name": "_token",
          "type": "address"
        }
      ],
      "name": "getLastPrice",
      "outputs": [
        {
          "internalType": "int256",
          "name": "",
          "type": "int256"
        }
      ],
      "stateMutability": "view",
      "type": "function"
    }
  ],
  "bytecode": "0x60806040523480156200001157600080fd5b50604051620022c9380380620022c9833981810160405281019062000037919062000368565b620000576200004b620000b460201b60201c565b620000bc60201b60201c565b82600160006101000a81548173ffffffffffffffffffffffffffffffffffffffff021916908373ffffffffffffffffffffffffffffffffffffffff160217905550620000ab8383836200018060201b60201c565b50505062000430565b600033905090565b60008060009054906101000a900473ffffffffffffffffffffffffffffffffffffffff169050816000806101000a81548173ffffffffffffffffffffffffffffffffffffffff021916908373ffffffffffffffffffffffffffffffffffffffff1602179055508173ffffffffffffffffffffffffffffffffffffffff168173ffffffffffffffffffffffffffffffffffffffff167f8be0079c531659141344cd1fd0a4f28419497f9722a3daafe3b4186f6b6457e060405160405180910390a35050565b82600260008573ffffffffffffffffffffffffffffffffffffffff1673ffffffffffffffffffffffffffffffffffffffff16815260200190815260200160002060000160000160006101000a81548173ffffffffffffffffffffffffffffffffffffffff021916908373ffffffffffffffffffffffffffffffffffffffff16021790555080600260008573ffffffffffffffffffffffffffffffffffffffff1673ffffffffffffffffffffffffffffffffffffffff1681526020019081526020016000206000016001018190555081600260008573ffffffffffffffffffffffffffffffffffffffff1673ffffffffffffffffffffffffffffffffffffffff16815260200190815260200160002060000160020160006101000a81548173ffffffffffffffffffffffffffffffffffffffff021916908373ffffffffffffffffffffffffffffffffffffffff1602179055506003839080600181540180825580915050600190039060005260206000200160009091909190916101000a81548173ffffffffffffffffffffffffffffffffffffffff021916908373ffffffffffffffffffffffffffffffffffffffff160217905550505050565b6000815190506200034b81620003fc565b92915050565b600081519050620003628162000416565b92915050565b6000806000606084860312156200037e57600080fd5b60006200038e868287016200033a565b9350506020620003a1868287016200033a565b9250506040620003b48682870162000351565b9150509250925092565b6000620003cb82620003d2565b9050919050565b600073ffffffffffffffffffffffffffffffffffffffff82169050919050565b6000819050919050565b6200040781620003be565b81146200041357600080fd5b50565b6200042181620003f2565b81146200042d57600080fd5b50565b611e8980620004406000396000f3fe608060405234801561001057600080fd5b50600436106100cf5760003560e01c8063adc9772e1161008c578063f2888dbb11610066578063f2888dbb14610212578063f2fde38b1461022e578063f40f0f521461024a578063f7c618c11461027a576100cf565b8063adc9772e14610196578063c692fc74146101b2578063d28682ea146101e2576100cf565b8063673a2a1f146100d45780636da0f078146100f2578063715018a6146101225780637e29d6c21461012c5780638da5cb5b14610148578063a4063dbc14610166575b600080fd5b6100dc610298565b6040516100e991906119c1565b60405180910390f35b61010c60048036038101906101079190611437565b610326565b6040516101199190611b34565b60405180910390f35b61012a6103b3565b005b61014660048036038101906101419190611473565b61043b565b005b6101506105d4565b60405161015d919061191d565b60405180910390f35b610180600480360381019061017b919061140e565b6105fd565b60405161018d9190611b19565b60405180910390f35b6101b060048036038101906101ab91906114c2565b6106db565b005b6101cc60048036038101906101c7919061140e565b6109e9565b6040516101d991906119fe565b60405180910390f35b6101fc60048036038101906101f7919061140e565b610ae4565b6040516102099190611b34565b60405180910390f35b61022c6004803603810190610227919061140e565b610bdb565b005b6102486004803603810190610243919061140e565b610e0a565b005b610264600480360381019061025f919061140e565b610f02565b6040516102719190611b34565b60405180910390f35b610282610fe0565b60405161028f91906119e3565b60405180910390f35b6060600380548060200260200160405190810160405280929190818152602001828054801561031c57602002820191906000526020600020905b8160009054906101000a900473ffffffffffffffffffffffffffffffffffffffff1673ffffffffffffffffffffffffffffffffffffffff16815260200190600101908083116102d2575b5050505050905090565b6000600260008473ffffffffffffffffffffffffffffffffffffffff1673ffffffffffffffffffffffffffffffffffffffff16815260200190815260200160002060030160008373ffffffffffffffffffffffffffffffffffffffff1673ffffffffffffffffffffffffffffffffffffffff16815260200190815260200160002060000154905092915050565b6103bb611006565b73ffffffffffffffffffffffffffffffffffffffff166103d96105d4565b73ffffffffffffffffffffffffffffffffffffffff161461042f576040517f08c379a000000000000000000000000000000000000000000000000000000000815260040161042690611a79565b60405180910390fd5b610439600061100e565b565b610443611006565b73ffffffffffffffffffffffffffffffffffffffff166104616105d4565b73ffffffffffffffffffffffffffffffffffffffff16146104b7576040517f08c379a00000000000000000000000000000000000000000000000000000000081526004016104ae90611a79565b60405180910390fd5b8273ffffffffffffffffffffffffffffffffffffffff16600260008573ffffffffffffffffffffffffffffffffffffffff1673ffffffffffffffffffffffffffffffffffffffff16815260200190815260200160002060000160000160009054906101000a900473ffffffffffffffffffffffffffffffffffffffff1673ffffffffffffffffffffffffffffffffffffffff16141561058b576040517f08c379a000000000000000000000000000000000000000000000000000000000815260040161058290611ad9565b60405180910390fd5b6105968383836110d2565b7f95f865c2808f8b2a85eea2611db7843150ee7835ef1403f9755918a97d76933c83836040516105c7929190611938565b60405180910390a1505050565b60008060009054906101000a900473ffffffffffffffffffffffffffffffffffffffff16905090565b6002602052806000526040600020600091509050806000016040518060600160405290816000820160009054906101000a900473ffffffffffffffffffffffffffffffffffffffff1673ffffffffffffffffffffffffffffffffffffffff1673ffffffffffffffffffffffffffffffffffffffff168152602001600182015481526020016002820160009054906101000a900473ffffffffffffffffffffffffffffffffffffffff1673ffffffffffffffffffffffffffffffffffffffff1673ffffffffffffffffffffffffffffffffffffffff1681525050905081565b6000811161071e576040517f08c379a000000000000000000000000000000000000000000000000000000000815260040161071590611ab9565b60405180910390fd5b6000600260008473ffffffffffffffffffffffffffffffffffffffff1673ffffffffffffffffffffffffffffffffffffffff168152602001908152602001600020905060008160030160003373ffffffffffffffffffffffffffffffffffffffff1673ffffffffffffffffffffffffffffffffffffffff168152602001908152602001600020905060008160000154146107ed576040517f08c379a00000000000000000000000000000000000000000000000000000000081526004016107e490611a59565b60405180910390fd5b828260000160000160009054906101000a900473ffffffffffffffffffffffffffffffffffffffff1673ffffffffffffffffffffffffffffffffffffffff166370a08231336040518263ffffffff1660e01b815260040161084e919061191d565b60206040518083038186803b15801561086657600080fd5b505afa15801561087a573d6000803e3d6000fd5b505050506040513d601f19601f8201168201806040525081019061089e9190611527565b10156108df576040517f08c379a00000000000000000000000000000000000000000000000000000000081526004016108d690611a39565b60405180910390fd5b8281600001819055504281600101819055508160000160000160009054906101000a900473ffffffffffffffffffffffffffffffffffffffff1673ffffffffffffffffffffffffffffffffffffffff166323b872dd3330866040518463ffffffff1660e01b815260040161095593929190611961565b602060405180830381600087803b15801561096f57600080fd5b505af1158015610983573d6000803e3d6000fd5b505050506040513d601f19601f820116820180604052508101906109a791906114fe565b507f5dac0c1b1112564a045ba943c9d50270893e8e826c49be8e7073adc713ab7bd73385856040516109db93929190611961565b60405180910390a150505050565b600080600260008473ffffffffffffffffffffffffffffffffffffffff1673ffffffffffffffffffffffffffffffffffffffff168152602001908152602001600020905060008160000160020160009054906101000a900473ffffffffffffffffffffffffffffffffffffffff1673ffffffffffffffffffffffffffffffffffffffff1663feaf968c6040518163ffffffff1660e01b815260040160a06040518083038186803b158015610a9c57600080fd5b505afa158015610ab0573d6000803e3d6000fd5b505050506040513d601f19601f82011682018060405250810190610ad49190611550565b5050509150508092505050919050565b6000600260008373ffffffffffffffffffffffffffffffffffffffff1673ffffffffffffffffffffffffffffffffffffffff16815260200190815260200160002060000160000160009054906101000a900473ffffffffffffffffffffffffffffffffffffffff1673ffffffffffffffffffffffffffffffffffffffff166370a08231306040518263ffffffff1660e01b8152600401610b84919061191d565b60206040518083038186803b158015610b9c57600080fd5b505afa158015610bb0573d6000803e3d6000fd5b505050506040513d601f19601f82011682018060405250810190610bd49190611527565b9050919050565b6000600260008373ffffffffffffffffffffffffffffffffffffffff1673ffffffffffffffffffffffffffffffffffffffff16815260200190815260200160002090506000600260008473ffffffffffffffffffffffffffffffffffffffff1673ffffffffffffffffffffffffffffffffffffffff16815260200190815260200160002060030160003373ffffffffffffffffffffffffffffffffffffffff1673ffffffffffffffffffffffffffffffffffffffff16815260200190815260200160002090506000816000015411610ce8576040517f08c379a0000000000000000000000000000000000000000000000000000000008152600401610cdf90611af9565b60405180910390fd5b6000610cf884846000018461128c565b90506000818360000154610d0c9190611b99565b905060008360000181905550600160009054906101000a900473ffffffffffffffffffffffffffffffffffffffff1673ffffffffffffffffffffffffffffffffffffffff1663a9059cbb33836040518363ffffffff1660e01b8152600401610d75929190611998565b602060405180830381600087803b158015610d8f57600080fd5b505af1158015610da3573d6000803e3d6000fd5b505050506040513d601f19601f82011682018060405250810190610dc791906114fe565b507fd8654fcc8cf5b36d30b3f5e4688fc78118e6d68de60b9994e09902268b57c3e3338683604051610dfb93929190611961565b60405180910390a15050505050565b610e12611006565b73ffffffffffffffffffffffffffffffffffffffff16610e306105d4565b73ffffffffffffffffffffffffffffffffffffffff1614610e86576040517f08c379a0000000000000000000000000000000000000000000000000000000008152600401610e7d90611a79565b60405180910390fd5b600073ffffffffffffffffffffffffffffffffffffffff168173ffffffffffffffffffffffffffffffffffffffff161415610ef6576040517f08c379a0000000000000000000000000000000000000000000000000000000008152600401610eed90611a19565b60405180910390fd5b610eff8161100e565b50565b600080600260008473ffffffffffffffffffffffffffffffffffffffff1673ffffffffffffffffffffffffffffffffffffffff16815260200190815260200160002090506000600260008573ffffffffffffffffffffffffffffffffffffffff1673ffffffffffffffffffffffffffffffffffffffff16815260200190815260200160002060030160003373ffffffffffffffffffffffffffffffffffffffff1673ffffffffffffffffffffffffffffffffffffffff1681526020019081526020016000209050610fd784836000018361128c565b92505050919050565b600160009054906101000a900473ffffffffffffffffffffffffffffffffffffffff1681565b600033905090565b60008060009054906101000a900473ffffffffffffffffffffffffffffffffffffffff169050816000806101000a81548173ffffffffffffffffffffffffffffffffffffffff021916908373ffffffffffffffffffffffffffffffffffffffff1602179055508173ffffffffffffffffffffffffffffffffffffffff168173ffffffffffffffffffffffffffffffffffffffff167f8be0079c531659141344cd1fd0a4f28419497f9722a3daafe3b4186f6b6457e060405160405180910390a35050565b82600260008573ffffffffffffffffffffffffffffffffffffffff1673ffffffffffffffffffffffffffffffffffffffff16815260200190815260200160002060000160000160006101000a81548173ffffffffffffffffffffffffffffffffffffffff021916908373ffffffffffffffffffffffffffffffffffffffff16021790555080600260008573ffffffffffffffffffffffffffffffffffffffff1673ffffffffffffffffffffffffffffffffffffffff1681526020019081526020016000206000016001018190555081600260008573ffffffffffffffffffffffffffffffffffffffff1673ffffffffffffffffffffffffffffffffffffffff16815260200190815260200160002060000160020160006101000a81548173ffffffffffffffffffffffffffffffffffffffff021916908373ffffffffffffffffffffffffffffffffffffffff1602179055506003839080600181540180825580915050600190039060005260206000200160009091909190916101000a81548173ffffffffffffffffffffffffffffffffffffffff021916908373ffffffffffffffffffffffffffffffffffffffff160217905550505050565b600081600101544210156112d5576040517f08c379a00000000000000000000000000000000000000000000000000000000081526004016112cc90611a99565b60405180910390fd5b6112de846109e9565b611309600160009054906101000a900473ffffffffffffffffffffffffffffffffffffffff166109e9565b603c80601861016d606489600101548960010154426113289190611c7a565b8a600001546113379190611c20565b6113419190611c20565b61134b9190611bef565b6113559190611bef565b61135f9190611bef565b6113699190611bef565b6113739190611bef565b61137d9190611c20565b6113879190611bef565b90509392505050565b60008135905061139f81611de0565b92915050565b6000815190506113b481611df7565b92915050565b6000815190506113c981611e0e565b92915050565b6000813590506113de81611e25565b92915050565b6000815190506113f381611e25565b92915050565b60008151905061140881611e3c565b92915050565b60006020828403121561142057600080fd5b600061142e84828501611390565b91505092915050565b6000806040838503121561144a57600080fd5b600061145885828601611390565b925050602061146985828601611390565b9150509250929050565b60008060006060848603121561148857600080fd5b600061149686828701611390565b93505060206114a786828701611390565b92505060406114b8868287016113cf565b9150509250925092565b600080604083850312156114d557600080fd5b60006114e385828601611390565b92505060206114f4858286016113cf565b9150509250929050565b60006020828403121561151057600080fd5b600061151e848285016113a5565b91505092915050565b60006020828403121561153957600080fd5b6000611547848285016113e4565b91505092915050565b600080600080600060a0868803121561156857600080fd5b6000611576888289016113f9565b9550506020611587888289016113ba565b9450506040611598888289016113e4565b93505060606115a9888289016113e4565b92505060806115ba888289016113f9565b9150509295509295909350565b60006115d383836115df565b60208301905092915050565b6115e881611cae565b82525050565b6115f781611cae565b82525050565b600061160882611b5f565b6116128185611b77565b935061161d83611b4f565b8060005b8381101561164e57815161163588826115c7565b975061164083611b6a565b925050600181019050611621565b5085935050505092915050565b61166481611d16565b82525050565b61167381611d3a565b82525050565b61168281611d5e565b82525050565b61169181611ccc565b82525050565b60006116a4602683611b88565b91507f4f776e61626c653a206e6577206f776e657220697320746865207a65726f206160008301527f64647265737300000000000000000000000000000000000000000000000000006020830152604082019050919050565b600061170a601483611b88565b91507f496e73756666696369656e742062616c616e63650000000000000000000000006000830152602082019050919050565b600061174a600d83611b88565b91507f556e737461636b206669727374000000000000000000000000000000000000006000830152602082019050919050565b600061178a602083611b88565b91507f4f776e61626c653a2063616c6c6572206973206e6f7420746865206f776e65726000830152602082019050919050565b60006117ca601483611b88565b91507f4465706f73697420646174652070726f626c656d0000000000000000000000006000830152602082019050919050565b600061180a601083611b88565b91507f4e6f6e2076616c696420616d6f756e74000000000000000000000000000000006000830152602082019050919050565b600061184a601483611b88565b91507f506f6f6c20616c7265616479206578697374732e0000000000000000000000006000830152602082019050919050565b600061188a601283611b88565b91507f4e6f7468696e6720746f20756e7374616b6500000000000000000000000000006000830152602082019050919050565b6060820160008201516118d3600085018261166a565b5060208201516118e660208501826118ff565b5060408201516118f9604085018261165b565b50505050565b61190881611cf6565b82525050565b61191781611cf6565b82525050565b600060208201905061193260008301846115ee565b92915050565b600060408201905061194d60008301856115ee565b61195a60208301846115ee565b9392505050565b600060608201905061197660008301866115ee565b61198360208301856115ee565b611990604083018461190e565b949350505050565b60006040820190506119ad60008301856115ee565b6119ba602083018461190e565b9392505050565b600060208201905081810360008301526119db81846115fd565b905092915050565b60006020820190506119f86000830184611679565b92915050565b6000602082019050611a136000830184611688565b92915050565b60006020820190508181036000830152611a3281611697565b9050919050565b60006020820190508181036000830152611a52816116fd565b9050919050565b60006020820190508181036000830152611a728161173d565b9050919050565b60006020820190508181036000830152611a928161177d565b9050919050565b60006020820190508181036000830152611ab2816117bd565b9050919050565b60006020820190508181036000830152611ad2816117fd565b9050919050565b60006020820190508181036000830152611af28161183d565b9050919050565b60006020820190508181036000830152611b128161187d565b9050919050565b6000606082019050611b2e60008301846118bd565b92915050565b6000602082019050611b49600083018461190e565b92915050565b6000819050602082019050919050565b600081519050919050565b6000602082019050919050565b600082825260208201905092915050565b600082825260208201905092915050565b6000611ba482611cf6565b9150611baf83611cf6565b9250827fffffffffffffffffffffffffffffffffffffffffffffffffffffffffffffffff03821115611be457611be3611d82565b5b828201905092915050565b6000611bfa82611cf6565b9150611c0583611cf6565b925082611c1557611c14611db1565b5b828204905092915050565b6000611c2b82611cf6565b9150611c3683611cf6565b9250817fffffffffffffffffffffffffffffffffffffffffffffffffffffffffffffffff0483118215151615611c6f57611c6e611d82565b5b828202905092915050565b6000611c8582611cf6565b9150611c9083611cf6565b925082821015611ca357611ca2611d82565b5b828203905092915050565b6000611cb982611cd6565b9050919050565b60008115159050919050565b6000819050919050565b600073ffffffffffffffffffffffffffffffffffffffff82169050919050565b6000819050919050565b600069ffffffffffffffffffff82169050919050565b6000611d2182611d28565b9050919050565b6000611d3382611cd6565b9050919050565b6000611d4582611d4c565b9050919050565b6000611d5782611cd6565b9050919050565b6000611d6982611d70565b9050919050565b6000611d7b82611cd6565b9050919050565b7f4e487b7100000000000000000000000000000000000000000000000000000000600052601160045260246000fd5b7f4e487b7100000000000000000000000000000000000000000000000000000000600052601260045260246000fd5b611de981611cae565b8114611df457600080fd5b50565b611e0081611cc0565b8114611e0b57600080fd5b50565b611e1781611ccc565b8114611e2257600080fd5b50565b611e2e81611cf6565b8114611e3957600080fd5b50565b611e4581611d00565b8114611e5057600080fd5b5056fea264697066735822122000578f38ca769a367af9d1bba32bd04cbfd0bcff1f8504a5382e143b01749a4f64736f6c63430008000033",
  "immutableReferences": {},
  "source": "// DeFiStaking.sol\r\n// SPDX-License-Identifier: MIT\r\n\r\npragma solidity 0.8.0;\r\nimport '@openzeppelin/contracts/token/ERC20/IERC20.sol';\r\nimport '@openzeppelin/contracts/access/Ownable.sol';\r\nimport '@openzeppelin/contracts/token/ERC20/ERC20.sol';\r\nimport '@chainlink/contracts/src/v0.8/interfaces/AggregatorV3Interface.sol';\r\n\r\n/**\r\n * @notice This contract is made for staking ERC20 tokens to earn an ERC20 token.\r\n */\r\ncontract DeFiStaking is Ownable {\r\n\r\n    // User informations for each pool.\r\n    struct UserInfo {\r\n        uint256 amount;         // Amount of staked token provided\r\n        uint256 depositDate;    // Deposit date for interest calculation\r\n    }\r\n\r\n    // Pool informations.\r\n    struct PoolInfo {\r\n        ERC20 token;            // Address of the staked token\r\n        uint256 yield;          // Percentage yield for the pool.\r\n        AggregatorV3Interface priceFeed;    // ChainLink oracle feed for this token\r\n    }\r\n\r\n    struct Pool {\r\n        PoolInfo info;\r\n        mapping(address => UserInfo) users;\r\n    }\r\n\r\n    // reward token\r\n    IERC20 public rewardToken;\r\n\r\n    mapping(address => Pool) public pools;\r\n    address[] private registeredPools;\r\n\r\n    event PoolAdded(address tokenPoolAddress, address priceFeed);\r\n    event Staked(address user, address tokenPoolAddress, uint256 amount);\r\n    event Unstaked(address user, address tokenPoolAddress, uint256 amount);\r\n\r\n    /**\r\n     * @dev initiate reward token and build the first pool with it.\r\n     * @param _rewardToken : reward token address\r\n     * @param _rewardTokenFeed : reward token feed\r\n     * @param _yield : Percentage reward token yield. This token can be stake too.\r\n     */\r\n    constructor(address _rewardToken, address _rewardTokenFeed, uint256 _yield) {\r\n        rewardToken = IERC20(_rewardToken);\r\n        _addPool(_rewardToken, _rewardTokenFeed, _yield);\r\n    }\r\n\r\n    /**\r\n     * @notice get all pools addresses added in contract.\r\n     * @return array of addresses\r\n     * @dev\r\n     */\r\n    function getPools() external view returns (address[] memory) {\r\n        return registeredPools;\r\n    }\r\n\r\n    /**\r\n     * @notice This contract is made for staking ERC20 tokens to earn an ERC20 token.\r\n     * @param _token : pool token address\r\n     * @param _user : user address\r\n     * @dev\r\n     */\r\n    function getUserBalanceInPool(address _token, address _user) external view returns (uint256) {\r\n        return pools[_token].users[_user].amount;\r\n    }\r\n\r\n    /**\r\n     * @notice get pool balance for contract\r\n     * @param _token : pool token address\r\n     * @return balance\r\n     */\r\n    function getPoolBalance(address _token) external view returns (uint256) {\r\n        return pools[_token].info.token.balanceOf(address(this));\r\n    }\r\n\r\n    /**\r\n     * @dev internal method to add a pool\r\n     * @param _token: pool token address\r\n     * @param _priceFeed: pool token feed\r\n     * @param _yield: Percentage token yield.\r\n     */\r\n    function _addPool(address _token, address _priceFeed, uint256 _yield) internal {\r\n        pools[_token].info.token = ERC20(_token);\r\n        pools[_token].info.yield = _yield;\r\n        pools[_token].info.priceFeed = AggregatorV3Interface(_priceFeed);\r\n\r\n        registeredPools.push(_token);\r\n    }\r\n\r\n    /**\r\n     * @notice method to add a pool. Can only performed by contract's owner\r\n     * @param _token: pool token address\r\n     * @param _priceFeed: pool token feed\r\n     * @param _yield: Percentage token yield.\r\n     */\r\n    function addPool(address _token, address _priceFeed, uint256 _yield) external onlyOwner {\r\n        require(pools[_token].info.token != ERC20(_token), \"Pool already exists.\");\r\n\r\n        _addPool(_token, _priceFeed, _yield);\r\n\r\n        emit PoolAdded(_token, _priceFeed);\r\n    }\r\n\r\n    /**\r\n     * @notice Stake your token in this pool\r\n     * @param _token: pool token address\r\n     * @param _amount: staked amount\r\n     * @dev Approval is needed before calling this method.\r\n     */\r\n    function stake(address _token, uint256 _amount) external {\r\n        require(_amount > 0, \"Non valid amount\");\r\n        Pool storage pool = pools[_token];\r\n        UserInfo storage user = pool.users[msg.sender];\r\n        require(user.amount == 0, \"Unstack first\");\r\n        require(pool.info.token.balanceOf(msg.sender) >= _amount, \"Insufficient balance\");\r\n\r\n        user.amount = _amount;\r\n        user.depositDate = block.timestamp;\r\n\r\n        pool.info.token.transferFrom(msg.sender, address(this), _amount);\r\n\r\n        emit Staked(msg.sender, _token, _amount);\r\n    }\r\n\r\n    /**\r\n     * @param _token: pool token address\r\n     * @param _pool: pool informations\r\n     * @param _user: user informations\r\n     * @dev calculate rewards by staked time in seconds\r\n     */\r\n    function _calculateReward(\r\n        address _token,\r\n        PoolInfo storage _pool,\r\n        UserInfo storage _user\r\n    ) internal view returns (uint256) {\r\n        require(block.timestamp >= _user.depositDate, \"Deposit date problem\");\r\n\r\n        return _user.amount\r\n            * (block.timestamp - _user.depositDate)\r\n            * _pool.yield / 100 / 365 / 24 / 60 / 60  // yield(%) by second\r\n            * uint256(getLastPrice(address(rewardToken))) / uint256(getLastPrice(_token)) // must be return in reward token\r\n        ;\r\n    }\r\n\r\n    /**\r\n     * @notice Unstake all in this pool\r\n     * @param _token: pool token address\r\n     */\r\n    function unstake(address _token) external {\r\n        Pool storage pool = pools[_token];\r\n        UserInfo storage user = pools[_token].users[msg.sender];\r\n        require(user.amount > 0, \"Nothing to unstake\");\r\n\r\n        uint256 rewards = _calculateReward(\r\n            _token,\r\n            pool.info,\r\n            user\r\n        );\r\n\r\n        uint256 amount = user.amount + rewards;\r\n        user.amount = 0;\r\n\r\n        rewardToken.transfer(msg.sender, amount);\r\n\r\n        emit Unstaked(msg.sender, _token, amount);\r\n    }\r\n\r\n    /**\r\n     * @notice get pending rewards for amount staked\r\n     * @param _token: pool token address\r\n     * @return current rewards for amount staked\r\n     */\r\n    function pendingReward(address _token) external view returns (uint256) {\r\n        Pool storage pool = pools[_token];\r\n        UserInfo storage user = pools[_token].users[msg.sender];\r\n\r\n        return _calculateReward(\r\n            _token,\r\n            pool.info,\r\n            user\r\n        );\r\n    }\r\n\r\n    /**\r\n     * @notice to retrieve the token's last price\r\n     * @param _token: pool token address\r\n     * @return the last price of this token *\r\n     * @dev /!\\ return a signed integer /!\\\r\n     */\r\n    function getLastPrice(address _token) public view returns (int) {\r\n        Pool storage pool = pools[_token];\r\n        (,int lastPrice,,,) = pool.info.priceFeed.latestRoundData();\r\n\r\n        return lastPrice;\r\n    }\r\n}",
  "sourcePath": "C:\\Users\\aaast\\Alyra\\defi_staking\\contracts\\DeFiStaking.sol",
  "compiler": {
    "name": "solc",
    "version": "0.8.0+commit.c7dfd78e.Emscripten.clang"
  },
  "schemaVersion": "3.4.3",
  "updatedAt": "2021-12-06T09:29:20.730Z",
  "devdoc": {
    "kind": "dev",
    "methods": {
      "addPool(address,address,uint256)": {
        "params": {
          "_priceFeed": ": pool token feed",
          "_token": ": pool token address",
          "_yield": ": Percentage token yield."
        }
      },
      "constructor": {
        "details": "initiate reward token and build the first pool with it.",
        "params": {
          "_rewardToken": ": reward token address",
          "_rewardTokenFeed": ": reward token feed",
          "_yield": ": Percentage reward token yield. This token can be stake too."
        }
      },
      "getLastPrice(address)": {
        "details": "/!\\ return a signed integer /!\\",
        "params": {
          "_token": ": pool token address"
        },
        "returns": {
          "_0": "the last price of this token *"
        }
      },
      "getPoolBalance(address)": {
        "params": {
          "_token": ": pool token address"
        },
        "returns": {
          "_0": "balance"
        }
      },
      "getPools()": {
        "returns": {
          "_0": "array of addresses"
        }
      },
      "getUserBalanceInPool(address,address)": {
        "params": {
          "_token": ": pool token address",
          "_user": ": user address"
        }
      },
      "owner()": {
        "details": "Returns the address of the current owner."
      },
      "pendingReward(address)": {
        "params": {
          "_token": ": pool token address"
        },
        "returns": {
          "_0": "current rewards for amount staked"
        }
      },
      "renounceOwnership()": {
        "details": "Leaves the contract without owner. It will not be possible to call `onlyOwner` functions anymore. Can only be called by the current owner. NOTE: Renouncing ownership will leave the contract without an owner, thereby removing any functionality that is only available to the owner."
      },
      "stake(address,uint256)": {
        "details": "Approval is needed before calling this method.",
        "params": {
          "_amount": ": staked amount",
          "_token": ": pool token address"
        }
      },
      "transferOwnership(address)": {
        "details": "Transfers ownership of the contract to a new account (`newOwner`). Can only be called by the current owner."
      },
      "unstake(address)": {
        "params": {
          "_token": ": pool token address"
        }
      }
    },
    "version": 1
  },
  "userdoc": {
    "kind": "user",
    "methods": {
      "addPool(address,address,uint256)": {
        "notice": "method to add a pool. Can only performed by contract's owner"
      },
      "getLastPrice(address)": {
        "notice": "to retrieve the token's last price"
      },
      "getPoolBalance(address)": {
        "notice": "get pool balance for contract"
      },
      "getPools()": {
        "notice": "get all pools addresses added in contract."
      },
      "getUserBalanceInPool(address,address)": {
        "notice": "This contract is made for staking ERC20 tokens to earn an ERC20 token."
      },
      "pendingReward(address)": {
        "notice": "get pending rewards for amount staked"
      },
      "stake(address,uint256)": {
        "notice": "Stake your token in this pool"
      },
      "unstake(address)": {
        "notice": "Unstake all in this pool"
      }
    },
    "notice": "This contract is made for staking ERC20 tokens to earn an ERC20 token.",
    "version": 1
  }
}